{
  "contractName": "LotteryContract",
  "abi": [
    {
      "inputs": [],
      "stateMutability": "nonpayable",
      "type": "constructor"
    },
    {
      "inputs": [
        {
          "internalType": "bytes32",
          "name": "",
          "type": "bytes32"
        }
      ],
      "name": "nonces",
      "outputs": [
        {
          "internalType": "uint256",
          "name": "",
          "type": "uint256"
        }
      ],
      "stateMutability": "view",
      "type": "function"
    },
    {
      "inputs": [],
      "name": "randomResult",
      "outputs": [
        {
          "internalType": "uint256",
          "name": "",
          "type": "uint256"
        }
      ],
      "stateMutability": "view",
      "type": "function"
    },
    {
      "inputs": [
        {
          "internalType": "bytes32",
          "name": "requestId",
          "type": "bytes32"
        },
        {
          "internalType": "uint256",
          "name": "randomness",
          "type": "uint256"
        }
      ],
      "name": "rawFulfillRandomness",
      "outputs": [],
      "stateMutability": "nonpayable",
      "type": "function"
    },
    {
      "inputs": [
        {
          "internalType": "uint256",
          "name": "numOfWinners",
          "type": "uint256"
        },
        {
          "internalType": "uint256",
          "name": "playersLimit",
          "type": "uint256"
        },
        {
          "internalType": "uint256",
          "name": "registrationAmount",
          "type": "uint256"
        },
        {
          "internalType": "uint256",
          "name": "adminFeePercentage",
          "type": "uint256"
        },
        {
          "internalType": "address",
          "name": "lotteryTokenAddress",
          "type": "address"
        },
        {
          "internalType": "uint256",
          "name": "randomSeed",
          "type": "uint256"
        }
      ],
      "name": "setLotteryRules",
      "outputs": [],
      "stateMutability": "nonpayable",
      "type": "function"
    },
    {
      "inputs": [],
      "name": "enterLottery",
      "outputs": [
        {
          "internalType": "bool",
          "name": "",
          "type": "bool"
        }
      ],
      "stateMutability": "nonpayable",
      "type": "function"
    },
    {
      "inputs": [],
      "name": "resetLottery",
      "outputs": [],
      "stateMutability": "nonpayable",
      "type": "function"
    }
  ],
  "bytecode": "0x60c060405234801561001057600080fd5b5073dd3782915140c8f3b190b5d67eac6dc5760c46e973a36085f69e2889c224210f603d836748e7dc00888173ffffffffffffffffffffffffffffffffffffffff1660a08173ffffffffffffffffffffffffffffffffffffffff1660601b815250508073ffffffffffffffffffffffffffffffffffffffff1660808173ffffffffffffffffffffffffffffffffffffffff1660601b81525050505033600260006101000a81548173ffffffffffffffffffffffffffffffffffffffff021916908373ffffffffffffffffffffffffffffffffffffffff1602179055506000600660146101000a81548160ff0219169083600281111561010b57fe5b021790555060006005819055507f6c3699283bda56ad74f6b855546325b68d482e983852a7a82979cc4807b641f460001b600d8190555067016345785d8a0000600e8190555060805160601c60a05160601c611130610175600039806104095250506111306000f3fe608060405234801561001057600080fd5b50600436106100625760003560e01c806342619f66146100675780636812d8741461008557806394985ddd146100fb5780639e317f1214610133578063c1af578514610175578063d337616e14610197575b600080fd5b61006f6101a1565b6040518082815260200191505060405180910390f35b6100f9600480360360c081101561009b57600080fd5b8101908080359060200190929190803590602001909291908035906020019092919080359060200190929190803573ffffffffffffffffffffffffffffffffffffffff169060200190929190803590602001909291905050506101a7565b005b6101316004803603604081101561011157600080fd5b810190808035906020019092919080359060200190929190505050610407565b005b61015f6004803603602081101561014957600080fd5b81019080803590602001909291905050506104d6565b6040518082815260200191505060405180910390f35b61017d6104ee565b604051808215151515815260200191505060405180910390f35b61019f610910565b005b600f5481565b600260009054906101000a900473ffffffffffffffffffffffffffffffffffffffff1673ffffffffffffffffffffffffffffffffffffffff163373ffffffffffffffffffffffffffffffffffffffff161461024d576040517f08c379a000000000000000000000000000000000000000000000000000000000815260040180806020018281038252602a81526020018061107d602a913960400191505060405180910390fd5b6000600281111561025a57fe5b600660149054906101000a900460ff16600281111561027557fe5b146102cb576040517f08c379a000000000000000000000000000000000000000000000000000000000815260040180806020018281038252602a81526020018061107d602a913960400191505060405180910390fd5b6040518060c001604052808781526020018681526020018581526020018481526020018373ffffffffffffffffffffffffffffffffffffffff1681526020018281525060076000820151816000015560208201518160010155604082015181600201556060820151816003015560808201518160040160006101000a81548173ffffffffffffffffffffffffffffffffffffffff021916908373ffffffffffffffffffffffffffffffffffffffff16021790555060a082015181600501559050506001600660146101000a81548160ff021916908360028111156103ab57fe5b021790555081600660006101000a81548173ffffffffffffffffffffffffffffffffffffffff021916908373ffffffffffffffffffffffffffffffffffffffff1602179055506103f9610ba4565b600f81905550505050505050565b7f000000000000000000000000000000000000000000000000000000000000000073ffffffffffffffffffffffffffffffffffffffff163373ffffffffffffffffffffffffffffffffffffffff16146104c8576040517f08c379a000000000000000000000000000000000000000000000000000000000815260040180806020018281038252601f8152602001807f4f6e6c7920565246436f6f7264696e61746f722063616e2066756c66696c6c0081525060200191505060405180910390fd5b6104d28282610bdd565b5050565b60006020528060005260406000206000915090505481565b600060076001015460018054905010610552576040517f08c379a00000000000000000000000000000000000000000000000000000000081526004018080602001828103825260298152602001806110a76029913960400191505060405180910390fd5b6001600281111561055f57fe5b600660149054906101000a900460ff16600281111561057a57fe5b146105ed576040517f08c379a00000000000000000000000000000000000000000000000000000000081526004018080602001828103825260158152602001807f546865204c6f747465727920697320436c6f736564000000000000000000000081525060200191505060405180910390fd5b600760020154600660009054906101000a900473ffffffffffffffffffffffffffffffffffffffff1673ffffffffffffffffffffffffffffffffffffffff1663dd62ed3e33306040518363ffffffff1660e01b8152600401808373ffffffffffffffffffffffffffffffffffffffff1673ffffffffffffffffffffffffffffffffffffffff1681526020018273ffffffffffffffffffffffffffffffffffffffff1673ffffffffffffffffffffffffffffffffffffffff1681526020019250505060206040518083038186803b1580156106c657600080fd5b505afa1580156106da573d6000803e3d6000fd5b505050506040513d60208110156106f057600080fd5b81019080805190602001909291905050501015610758576040517f08c379a00000000000000000000000000000000000000000000000000000000081526004018080602001828103825260258152602001806110586025913960400191505060405180910390fd5b6001339080600181540180825580915050600190039060005260206000200160009091909190916101000a81548173ffffffffffffffffffffffffffffffffffffffff021916908373ffffffffffffffffffffffffffffffffffffffff160217905550600660009054906101000a900473ffffffffffffffffffffffffffffffffffffffff1673ffffffffffffffffffffffffffffffffffffffff166323b872dd33306007600201546040518463ffffffff1660e01b8152600401808473ffffffffffffffffffffffffffffffffffffffff1673ffffffffffffffffffffffffffffffffffffffff1681526020018373ffffffffffffffffffffffffffffffffffffffff1673ffffffffffffffffffffffffffffffffffffffff1681526020018281526020019350505050602060405180830381600087803b15801561089d57600080fd5b505af11580156108b1573d6000803e3d6000fd5b505050506040513d60208110156108c757600080fd5b810190808051906020019092919050505050600760020154600560008282540192505081905550600760010154600180549050141561090957610908610be8565b5b6001905090565b600260009054906101000a900473ffffffffffffffffffffffffffffffffffffffff1673ffffffffffffffffffffffffffffffffffffffff163373ffffffffffffffffffffffffffffffffffffffff16146109b6576040517f08c379a000000000000000000000000000000000000000000000000000000000815260040180806020018281038252602b8152602001806110d0602b913960400191505060405180910390fd5b6002808111156109c257fe5b600660149054906101000a900460ff1660028111156109dd57fe5b14610a33576040517f08c379a000000000000000000000000000000000000000000000000000000000815260040180806020018281038252602a81526020018061107d602a913960400191505060405180910390fd5b60076000808201600090556001820160009055600282016000905560038201600090556004820160006101000a81549073ffffffffffffffffffffffffffffffffffffffff021916905560058201600090555050600260006101000a81549073ffffffffffffffffffffffffffffffffffffffff0219169055600f6000905560016000610ac09190611011565b600660146101000a81549060ff0219169055600d60009055600e6000905560056000905560008090505b600480549050811015610b935760006003600060048481548110610b0a57fe5b9060005260206000200160009054906101000a900473ffffffffffffffffffffffffffffffffffffffff1673ffffffffffffffffffffffffffffffffffffffff1673ffffffffffffffffffffffffffffffffffffffff16815260200190815260200160002060006101000a81548160ff0219169083151502179055508080600101915050610aea565b5060046000610ba29190611011565b565b6000424460405160200180838152602001828152602001925050506040516020818303038152906040528051906020012060001c905090565b80600f819055505050565b600060646007600301546005540281610bfd57fe5b0490506000600760000154826005540381610c1457fe5b04905060008090505b600760000154811015610ee1576000600760010154600f5481610c3c57fe5b069050600060018281548110610c4e57fe5b9060005260206000200160009054906101000a900473ffffffffffffffffffffffffffffffffffffffff1690505b600360008273ffffffffffffffffffffffffffffffffffffffff1673ffffffffffffffffffffffffffffffffffffffff16815260200190815260200160002060009054906101000a900460ff1615610d3257610cd6610ba4565b600f5402600f81905550600760010154600f5481610cf057fe5b06915060018281548110610d0057fe5b9060005260206000200160009054906101000a900473ffffffffffffffffffffffffffffffffffffffff169050610c7c565b6001600360008373ffffffffffffffffffffffffffffffffffffffff1673ffffffffffffffffffffffffffffffffffffffff16815260200190815260200160002060006101000a81548160ff0219169083151502179055506004819080600181540180825580915050600190039060005260206000200160009091909190916101000a81548173ffffffffffffffffffffffffffffffffffffffff021916908373ffffffffffffffffffffffffffffffffffffffff160217905550600660009054906101000a900473ffffffffffffffffffffffffffffffffffffffff1673ffffffffffffffffffffffffffffffffffffffff1663a9059cbb82866040518363ffffffff1660e01b8152600401808373ffffffffffffffffffffffffffffffffffffffff1673ffffffffffffffffffffffffffffffffffffffff16815260200182815260200192505050602060405180830381600087803b158015610e9657600080fd5b505af1158015610eaa573d6000803e3d6000fd5b505050506040513d6020811015610ec057600080fd5b81019080805190602001909291905050505050508080600101915050610c1d565b50600660009054906101000a900473ffffffffffffffffffffffffffffffffffffffff1673ffffffffffffffffffffffffffffffffffffffff1663a9059cbb600260009054906101000a900473ffffffffffffffffffffffffffffffffffffffff16846040518363ffffffff1660e01b8152600401808373ffffffffffffffffffffffffffffffffffffffff1673ffffffffffffffffffffffffffffffffffffffff16815260200182815260200192505050602060405180830381600087803b158015610fad57600080fd5b505af1158015610fc1573d6000803e3d6000fd5b505050506040513d6020811015610fd757600080fd5b8101908080519060200190929190505050506002600660146101000a81548160ff0219169083600281111561100857fe5b02179055505050565b508054600082559060005260206000209081019061102f9190611032565b50565b61105491905b80821115611050576000816000905550600101611038565b5090565b9056fe436f6e7472616374206973206e6f7420616c6c6f77656420746f207370656e6420746869735374617274696e6720746865204c6f74746572792072657175697265732041646d696e204163636573734d61782050617274696369706174696f6e20666f7220746865204c6f74746572792052656163686564526573657474696e6720746865204c6f74746572792072657175697265732041646d696e20416363657373a264697066735822122085fa2955f5f2941d6933affe16526ed3a88a8ecd4a2b78f9d29e23433f91072964736f6c63430006060033",
  "immutableReferences": {
    "562": [
      {
        "length": 32,
        "start": 1033
      }
    ]
  },
  "source": "pragma solidity ^0.6.6;\n\nimport \"@openzeppelin/contracts/token/ERC20/IERC20.sol\";\nimport \"@chainlink/contracts/src/v0.6/VRFConsumerBase.sol\";\n\ncontract LotteryContract is VRFConsumerBase {\n    struct LotteryConfig {\n        uint256 numOfWinners;\n        uint256 playersLimit;\n        uint256 registrationAmount;\n        uint256 adminFeePercentage;\n        address lotteryTokenAddress;\n        uint256 randomSeed;\n    }\n\n    address[] lotteryPlayers;\n    address adminAddress;\n    enum LotteryStatus {NOTSTARTED, INPROGRESS, CLOSED}\n    mapping(address => bool) winnerAddresses;\n    address[] winners;\n    uint256 totalLotteryPool;\n\n    IERC20 lotteryToken;\n    LotteryStatus lotteryStatus;\n    LotteryConfig lotteryConfig;\n\n    bytes32 internal keyHashVRF;\n    uint256 internal feeVRF;\n    uint256 public randomResult;\n\n    constructor()\n        public\n        VRFConsumerBase(\n            0xdD3782915140c8f3b190B5D67eAc6dc5760C46E9, // VRF Coordinator\n            0xa36085F69e2889c224210F603D836748e7dC0088 // LINK Token\n        )\n    {\n        adminAddress = msg.sender;\n        lotteryStatus = LotteryStatus.NOTSTARTED;\n        totalLotteryPool = 0;\n        keyHashVRF = 0x6c3699283bda56ad74f6b855546325b68d482e983852a7a82979cc4807b641f4;\n        feeVRF = 0.1 * 10**18; // 0.1 LINK\n    }\n\n    function getRandomNumberChainlink(uint256 userProvidedSeed)\n        internal\n        returns (bytes32 requestId)\n    {\n        require(\n            LINK.balanceOf(address(this)) > feeVRF,\n            \"Not enough LINK - fill contract with faucet\"\n        );\n        return requestRandomness(keyHashVRF, feeVRF, userProvidedSeed);\n    }\n\n    function fulfillRandomness(bytes32 requestId, uint256 randomness)\n        internal\n        override\n    {\n        randomResult = randomness;\n    }\n\n    function setLotteryRules(\n        uint256 numOfWinners,\n        uint256 playersLimit,\n        uint256 registrationAmount,\n        uint256 adminFeePercentage,\n        address lotteryTokenAddress,\n        uint256 randomSeed\n    ) public {\n        require(\n            msg.sender == adminAddress,\n            \"Starting the Lottery requires Admin Access\"\n        );\n        require(\n            lotteryStatus == LotteryStatus.NOTSTARTED,\n            \"Starting the Lottery requires Admin Access\"\n        );\n        lotteryConfig = LotteryConfig(\n            numOfWinners,\n            playersLimit,\n            registrationAmount,\n            adminFeePercentage,\n            lotteryTokenAddress,\n            randomSeed\n        );\n        lotteryStatus = LotteryStatus.INPROGRESS;\n        lotteryToken = IERC20(lotteryTokenAddress);\n        //if chainlink takes time we go with blockchain approach\n        randomResult = getRandomNumberBlockchain();\n        // getRandomNumberChainlink(randomSeed);\n    }\n\n    function enterLottery() public returns (bool) {\n        require(\n            lotteryPlayers.length < lotteryConfig.playersLimit,\n            \"Max Participation for the Lottery Reached\"\n        );\n        //add condition if address has already entered\n        require(\n            lotteryStatus == LotteryStatus.INPROGRESS,\n            \"The Lottery is Closed\"\n        );\n        require(\n            lotteryToken.allowance(msg.sender, address(this)) >=\n                lotteryConfig.registrationAmount,\n            \"Contract is not allowed to spend this\"\n        );\n        lotteryPlayers.push(msg.sender);\n        lotteryToken.transferFrom(\n            msg.sender,\n            address(this),\n            lotteryConfig.registrationAmount\n        );\n        totalLotteryPool += lotteryConfig.registrationAmount;\n        if (lotteryPlayers.length == lotteryConfig.playersLimit) {\n            settleLottery();\n        }\n        return true;\n    }\n\n    function settleLottery() internal {\n        // require(msg.sender == adminAddress, \"Requires Admin Access\");\n        uint256 adminFees = (totalLotteryPool *\n            lotteryConfig.adminFeePercentage) / 100;\n        uint256 winnersPool = (totalLotteryPool - adminFees) /\n            lotteryConfig.numOfWinners;\n\n        for (uint256 i = 0; i < lotteryConfig.numOfWinners; i++) {\n            uint256 winningIndex = randomResult % lotteryConfig.playersLimit;\n            address userAddress = lotteryPlayers[winningIndex];\n            while (winnerAddresses[userAddress]) {\n                randomResult = randomResult * getRandomNumberBlockchain();\n                winningIndex = randomResult % lotteryConfig.playersLimit;\n                userAddress = lotteryPlayers[winningIndex];\n            }\n            winnerAddresses[userAddress] = true;\n            winners.push(userAddress);\n            lotteryToken.transfer(userAddress, winnersPool);\n        }\n        //transfer to Admin\n        lotteryToken.transfer(adminAddress, adminFees);\n        lotteryStatus = LotteryStatus.CLOSED;\n    }\n\n    function getRandomNumberBlockchain() internal view returns (uint256) {\n        return\n            uint256(\n                keccak256(abi.encodePacked(block.timestamp, block.difficulty))\n            );\n    }\n\n    function resetLottery() public {\n        require(\n            msg.sender == adminAddress,\n            \"Resetting the Lottery requires Admin Access\"\n        );\n        require(\n            lotteryStatus == LotteryStatus.CLOSED,\n            \"Starting the Lottery requires Admin Access\"\n        );\n        delete lotteryConfig;\n        delete adminAddress;\n        delete randomResult;\n        delete lotteryPlayers;\n        delete lotteryStatus;\n        delete keyHashVRF;\n        delete feeVRF;\n        delete totalLotteryPool;\n        for (uint256 i = 0; i < winners.length; i++) {\n            winnerAddresses[winners[i]] = false;\n        }\n        delete winners;\n    }\n\n    //add logic to reset contract variblaes values\n    // save historic data of Lottery\n    //error handling\n    //random number integration and making sure that the contract always has LINK tokens\n}\n",
  "sourcePath": "/home/deqode/ethereum-lottery-smart-contract/contracts/LotteryContract.sol",
  "compiler": {
    "name": "solc",
    "version": "0.6.6+commit.6c089d02.Emscripten.clang"
  },
  "schemaVersion": "3.3.2",
  "updatedAt": "2020-11-11T21:28:51.396Z",
  "devdoc": {
    "methods": {}
  },
  "userdoc": {
    "methods": {}
  }
}