{
  "contractName": "LotteryContract",
  "abi": [
    {
      "inputs": [],
      "stateMutability": "nonpayable",
      "type": "constructor"
    },
    {
      "anonymous": false,
      "inputs": [],
      "name": "LotteryReset",
      "type": "event"
    },
    {
      "anonymous": false,
      "inputs": [],
      "name": "LotterySettled",
      "type": "event"
    },
    {
      "anonymous": false,
      "inputs": [],
      "name": "LotteryStarted",
      "type": "event"
    },
    {
      "anonymous": false,
      "inputs": [
        {
          "indexed": true,
          "internalType": "address",
          "name": "_from",
          "type": "address"
        }
      ],
      "name": "MaxParticipationCompleted",
      "type": "event"
    },
    {
      "anonymous": false,
      "inputs": [
        {
          "indexed": true,
          "internalType": "address",
          "name": "_from",
          "type": "address"
        }
      ],
      "name": "RandomNumberGenerated",
      "type": "event"
    },
    {
      "anonymous": false,
      "inputs": [],
      "name": "WinnersGenerated",
      "type": "event"
    },
    {
      "inputs": [],
      "name": "lotteryStatus",
      "outputs": [
        {
          "internalType": "enum LotteryContract.LotteryStatus",
          "name": "",
          "type": "uint8"
        }
      ],
      "stateMutability": "view",
      "type": "function"
    },
    {
      "inputs": [
        {
          "internalType": "bytes32",
          "name": "",
          "type": "bytes32"
        }
      ],
      "name": "nonces",
      "outputs": [
        {
          "internalType": "uint256",
          "name": "",
          "type": "uint256"
        }
      ],
      "stateMutability": "view",
      "type": "function"
    },
    {
      "inputs": [
        {
          "internalType": "bytes32",
          "name": "requestId",
          "type": "bytes32"
        },
        {
          "internalType": "uint256",
          "name": "randomness",
          "type": "uint256"
        }
      ],
      "name": "rawFulfillRandomness",
      "outputs": [],
      "stateMutability": "nonpayable",
      "type": "function"
    },
    {
      "inputs": [
        {
          "internalType": "uint256",
          "name": "numOfWinners",
          "type": "uint256"
        },
        {
          "internalType": "uint256",
          "name": "playersLimit",
          "type": "uint256"
        },
        {
          "internalType": "uint256",
          "name": "registrationAmount",
          "type": "uint256"
        },
        {
          "internalType": "uint256",
          "name": "adminFeePercentage",
          "type": "uint256"
        },
        {
          "internalType": "address",
          "name": "lotteryTokenAddress",
          "type": "address"
        },
        {
          "internalType": "uint256",
          "name": "randomSeed",
          "type": "uint256"
        }
      ],
      "name": "setLotteryRules",
      "outputs": [],
      "stateMutability": "nonpayable",
      "type": "function"
    },
    {
      "inputs": [],
      "name": "enterLottery",
      "outputs": [
        {
          "internalType": "bool",
          "name": "",
          "type": "bool"
        }
      ],
      "stateMutability": "nonpayable",
      "type": "function"
    },
    {
      "inputs": [],
      "name": "settleLottery",
      "outputs": [],
      "stateMutability": "nonpayable",
      "type": "function"
    },
    {
      "inputs": [],
      "name": "resetLottery",
      "outputs": [],
      "stateMutability": "nonpayable",
      "type": "function"
    }
  ],
  "bytecode": "0x60c060405234801561001057600080fd5b5073dd3782915140c8f3b190b5d67eac6dc5760c46e973a36085f69e2889c224210f603d836748e7dc00888173ffffffffffffffffffffffffffffffffffffffff1660a08173ffffffffffffffffffffffffffffffffffffffff1660601b815250508073ffffffffffffffffffffffffffffffffffffffff1660808173ffffffffffffffffffffffffffffffffffffffff1660601b81525050505033600260006101000a81548173ffffffffffffffffffffffffffffffffffffffff021916908373ffffffffffffffffffffffffffffffffffffffff1602179055506000600660146101000a81548160ff0219169083600281111561010b57fe5b021790555060006005819055507f6c3699283bda56ad74f6b855546325b68d482e983852a7a82979cc4807b641f460001b600d8190555067016345785d8a0000600e819055506000601060006101000a81548160ff0219169083151502179055506000601060016101000a81548160ff02191690831515021790555060805160601c60a05160601c611a3d6101ba60003980610b0e52806114ee52508061135052806114b25250611a3d6000f3fe608060405234801561001057600080fd5b506004361061007d5760003560e01c806394985ddd1161005b57806394985ddd1461012e5780639e317f1214610166578063c1af5785146101a8578063d337616e146101ca5761007d565b80630d683dd9146100825780635ad726b4146100ae5780636812d874146100b8575b600080fd5b61008a6101d4565b6040518082600281111561009a57fe5b60ff16815260200191505060405180910390f35b6100b66101e7565b005b61012c600480360360c08110156100ce57600080fd5b8101908080359060200190929190803590602001909291908035906020019092919080359060200190929190803573ffffffffffffffffffffffffffffffffffffffff1690602001909291908035906020019092919050505061082b565b005b6101646004803603604081101561014457600080fd5b810190808035906020019092919080359060200190929190505050610b0c565b005b6101926004803603602081101561017c57600080fd5b8101908080359060200190929190505050610bdb565b6040518082815260200191505060405180910390f35b6101b0610bf3565b604051808215151515815260200191505060405180910390f35b6101d2611042565b005b600660149054906101000a900460ff1681565b601060019054906101000a900460ff1661024c576040517f08c379a000000000000000000000000000000000000000000000000000000000815260040180806020018281038252604581526020018061185c6045913960600191505060405180910390fd5b6001600281111561025957fe5b600660149054906101000a900460ff16600281111561027457fe5b146102ca576040517f08c379a00000000000000000000000000000000000000000000000000000000081526004018080602001828103825260248152602001806119b96024913960400191505060405180910390fd5b60008090505b6007600001548110156104ff576000600760010154600f54816102ef57fe5b06905060008090505b600073ffffffffffffffffffffffffffffffffffffffff166003600084815260200190815260200160002060009054906101000a900473ffffffffffffffffffffffffffffffffffffffff1673ffffffffffffffffffffffffffffffffffffffff161461042557610368836112cb565b600f5401600f81905550600760010154600f548161038257fe5b0691508080600101915050600760010154811415610420575b600073ffffffffffffffffffffffffffffffffffffffff166003600084815260200190815260200160002060009054906101000a900473ffffffffffffffffffffffffffffffffffffffff1673ffffffffffffffffffffffffffffffffffffffff161461041b57600760010154600183018161041357fe5b06915061039b565b600090505b6102f8565b60006001838154811061043457fe5b9060005260206000200160009054906101000a900473ffffffffffffffffffffffffffffffffffffffff169050806003600085815260200190815260200160002060006101000a81548173ffffffffffffffffffffffffffffffffffffffff021916908373ffffffffffffffffffffffffffffffffffffffff16021790555060048390806001815401808255809150506001900390600052602060002001600090919091909150556104e5846112cb565b600f5401600f8190555050505080806001019150506102d0565b506001601060006101000a81548160ff0219169083151502179055507f1f689cf1fc80ab3580590a7a9035baf9d303e9349c60f58aff89eede927e3b5760405160405180910390a160006064600760030154600554028161055c57fe5b049050600060076000015482600554038161057357fe5b04905060008090505b6007600001548110156106cf57600060016004838154811061059a57fe5b9060005260206000200154815481106105af57fe5b9060005260206000200160009054906101000a900473ffffffffffffffffffffffffffffffffffffffff169050600660009054906101000a900473ffffffffffffffffffffffffffffffffffffffff1673ffffffffffffffffffffffffffffffffffffffff1663a9059cbb82856040518363ffffffff1660e01b8152600401808373ffffffffffffffffffffffffffffffffffffffff1673ffffffffffffffffffffffffffffffffffffffff16815260200182815260200192505050602060405180830381600087803b15801561068557600080fd5b505af1158015610699573d6000803e3d6000fd5b505050506040513d60208110156106af57600080fd5b81019080805190602001909291905050505050808060010191505061057c565b50600660009054906101000a900473ffffffffffffffffffffffffffffffffffffffff1673ffffffffffffffffffffffffffffffffffffffff1663a9059cbb600260009054906101000a900473ffffffffffffffffffffffffffffffffffffffff16846040518363ffffffff1660e01b8152600401808373ffffffffffffffffffffffffffffffffffffffff1673ffffffffffffffffffffffffffffffffffffffff16815260200182815260200192505050602060405180830381600087803b15801561079b57600080fd5b505af11580156107af573d6000803e3d6000fd5b505050506040513d60208110156107c557600080fd5b8101908080519060200190929190505050506002600660146101000a81548160ff021916908360028111156107f657fe5b02179055507f7c286e244a0e448247c44bb115bdd1c139318d5444a8af1d00e81116c09c0bd760405160405180910390a15050565b600260009054906101000a900473ffffffffffffffffffffffffffffffffffffffff1673ffffffffffffffffffffffffffffffffffffffff163373ffffffffffffffffffffffffffffffffffffffff16146108d1576040517f08c379a000000000000000000000000000000000000000000000000000000000815260040180806020018281038252602a815260200180611966602a913960400191505060405180910390fd5b600060028111156108de57fe5b600660149054906101000a900460ff1660028111156108f957fe5b1461094f576040517f08c379a00000000000000000000000000000000000000000000000000000000081526004018080602001828103825260298152602001806118a16029913960400191505060405180910390fd5b6002858161095957fe5b048611156109b2576040517f08c379a000000000000000000000000000000000000000000000000000000000815260040180806020018281038252604c8152602001806118f5604c913960600191505060405180910390fd5b6040518060c001604052808781526020018681526020018581526020018481526020018373ffffffffffffffffffffffffffffffffffffffff1681526020018281525060076000820151816000015560208201518160010155604082015181600201556060820151816003015560808201518160040160006101000a81548173ffffffffffffffffffffffffffffffffffffffff021916908373ffffffffffffffffffffffffffffffffffffffff16021790555060a082015181600501559050506001600660146101000a81548160ff02191690836002811115610a9257fe5b021790555081600660006101000a81548173ffffffffffffffffffffffffffffffffffffffff021916908373ffffffffffffffffffffffffffffffffffffffff1602179055507fd029c7c68d943f92286a7825fa6aa2deefa1eee46cee6c91b7e483fd06d27baf60405160405180910390a1505050505050565b7f000000000000000000000000000000000000000000000000000000000000000073ffffffffffffffffffffffffffffffffffffffff163373ffffffffffffffffffffffffffffffffffffffff1614610bcd576040517f08c379a000000000000000000000000000000000000000000000000000000000815260040180806020018281038252601f8152602001807f4f6e6c7920565246436f6f7264696e61746f722063616e2066756c66696c6c0081525060200191505060405180910390fd5b610bd782826112e0565b5050565b60006020528060005260406000206000915090505481565b600060076001015460018054905010610c57576040517f08c379a00000000000000000000000000000000000000000000000000000000081526004018080602001828103825260298152602001806119906029913960400191505060405180910390fd5b60016002811115610c6457fe5b600660149054906101000a900460ff166002811115610c7f57fe5b14610cd5576040517f08c379a00000000000000000000000000000000000000000000000000000000081526004018080602001828103825260248152602001806119b96024913960400191505060405180910390fd5b600760020154600660009054906101000a900473ffffffffffffffffffffffffffffffffffffffff1673ffffffffffffffffffffffffffffffffffffffff1663dd62ed3e33306040518363ffffffff1660e01b8152600401808373ffffffffffffffffffffffffffffffffffffffff1673ffffffffffffffffffffffffffffffffffffffff1681526020018273ffffffffffffffffffffffffffffffffffffffff1673ffffffffffffffffffffffffffffffffffffffff1681526020019250505060206040518083038186803b158015610dae57600080fd5b505afa158015610dc2573d6000803e3d6000fd5b505050506040513d6020811015610dd857600080fd5b81019080805190602001909291905050501015610e40576040517f08c379a00000000000000000000000000000000000000000000000000000000081526004018080602001828103825260258152602001806119416025913960400191505060405180910390fd5b6001339080600181540180825580915050600190039060005260206000200160009091909190916101000a81548173ffffffffffffffffffffffffffffffffffffffff021916908373ffffffffffffffffffffffffffffffffffffffff160217905550600660009054906101000a900473ffffffffffffffffffffffffffffffffffffffff1673ffffffffffffffffffffffffffffffffffffffff166323b872dd33306007600201546040518463ffffffff1660e01b8152600401808473ffffffffffffffffffffffffffffffffffffffff1673ffffffffffffffffffffffffffffffffffffffff1681526020018373ffffffffffffffffffffffffffffffffffffffff1673ffffffffffffffffffffffffffffffffffffffff1681526020018281526020019350505050602060405180830381600087803b158015610f8557600080fd5b505af1158015610f99573d6000803e3d6000fd5b505050506040513d6020811015610faf57600080fd5b810190808051906020019092919050505050600760020154600560008282540192505081905550600760010154600180549050141561103b573373ffffffffffffffffffffffffffffffffffffffff167f176a0af3bf0cb5427d014b58c70781c718cc8890129cc6ef23e9289fd12b62f560405160405180910390a2611039600760050154611349565b505b6001905090565b600260009054906101000a900473ffffffffffffffffffffffffffffffffffffffff1673ffffffffffffffffffffffffffffffffffffffff163373ffffffffffffffffffffffffffffffffffffffff16146110e8576040517f08c379a000000000000000000000000000000000000000000000000000000000815260040180806020018281038252602b8152602001806119dd602b913960400191505060405180910390fd5b6002808111156110f457fe5b600660149054906101000a900460ff16600281111561110f57fe5b14611182576040517f08c379a00000000000000000000000000000000000000000000000000000000081526004018080602001828103825260198152602001807f4c6f7474657279205374696c6c20696e2050726f67726573730000000000000081525060200191505060405180910390fd5b60076000808201600090556001820160009055600282016000905560038201600090556004820160006101000a81549073ffffffffffffffffffffffffffffffffffffffff021916905560058201600090555050600f60009055600660146101000a81549060ff021916905560056000905560008090505b60018054905081101561124a576003600082815260200190815260200160002060006101000a81549073ffffffffffffffffffffffffffffffffffffffff021916905580806001019150506111fa565b506000601060016101000a81548160ff0219169083151502179055506000601060006101000a81548160ff0219169083151502179055506004600061128f91906117f4565b6001600061129d9190611815565b7fc07cdc0437f4a5523d938e3a96f2e751ce4a8e8784c5ce2316c7f833ac26772060405160405180910390a1565b6000808243034090508060001c915050919050565b80600f819055506001601060016101000a81548160ff0219169083151502179055503373ffffffffffffffffffffffffffffffffffffffff167fb4dc7c46dc0e85194f3a727cad131afe82eeecc09809ef9672685fc23852091c60405160405180910390a25050565b6000600e547f000000000000000000000000000000000000000000000000000000000000000073ffffffffffffffffffffffffffffffffffffffff166370a08231306040518263ffffffff1660e01b8152600401808273ffffffffffffffffffffffffffffffffffffffff1673ffffffffffffffffffffffffffffffffffffffff16815260200191505060206040518083038186803b1580156113eb57600080fd5b505afa1580156113ff573d6000803e3d6000fd5b505050506040513d602081101561141557600080fd5b8101908080519060200190929190505050101561147d576040517f08c379a000000000000000000000000000000000000000000000000000000000815260040180806020018281038252602b8152602001806118ca602b913960400191505060405180910390fd5b6000601060016101000a81548160ff0219169083151502179055506114a7600d54600e54846114ae565b9050919050565b60007f000000000000000000000000000000000000000000000000000000000000000073ffffffffffffffffffffffffffffffffffffffff16634000aea07f000000000000000000000000000000000000000000000000000000000000000085878660405160200180838152602001828152602001925050506040516020818303038152906040526040518463ffffffff1660e01b8152600401808473ffffffffffffffffffffffffffffffffffffffff1673ffffffffffffffffffffffffffffffffffffffff16815260200183815260200180602001828103825283818151815260200191508051906020019080838360005b838110156115bd5780820151818401526020810190506115a2565b50505050905090810190601f1680156115ea5780820380516001836020036101000a031916815260200191505b50945050505050602060405180830381600087803b15801561160b57600080fd5b505af115801561161f573d6000803e3d6000fd5b505050506040513d602081101561163557600080fd5b81019080805190602001909291905050505060006116678584306000808a8152602001908152602001600020546116b9565b905061168f60016000808881526020019081526020016000205461173390919063ffffffff16565b600080878152602001908152602001600020819055506116af85826117bb565b9150509392505050565b600084848484604051602001808581526020018481526020018373ffffffffffffffffffffffffffffffffffffffff1673ffffffffffffffffffffffffffffffffffffffff1681526020018281526020019450505050506040516020818303038152906040528051906020012060001c9050949350505050565b6000808284019050838110156117b1576040517f08c379a000000000000000000000000000000000000000000000000000000000815260040180806020018281038252601b8152602001807f536166654d6174683a206164646974696f6e206f766572666c6f77000000000081525060200191505060405180910390fd5b8091505092915050565b60008282604051602001808381526020018281526020019250505060405160208183030381529060405280519060200120905092915050565b50805460008255906000526020600020908101906118129190611836565b50565b50805460008255906000526020600020908101906118339190611836565b50565b61185891905b8082111561185457600081600090555060010161183c565b5090565b9056fe4c6f747465727920436f6e66696775726174696f6e207374696c6c20696e2070726f67726573732e20506c6f656173652074727920696e20612073686f7274207768696c654572726f723a20416e206578697374696e67206c6f747465727920697320696e2070726f67726573734e6f7420656e6f756768204c494e4b202d2066696c6c20636f6e74726163742077697468206661756365744e756d626572206f662077696e6e6572732073686f756c64206265206c657373207468616e206f7220657175616c20746f2068616c6620746865206e756d626572206f6620706c6179657273436f6e7472616374206973206e6f7420616c6c6f77656420746f207370656e6420746869735374617274696e6720746865204c6f74746572792072657175697265732041646d696e204163636573734d61782050617274696369706174696f6e20666f7220746865204c6f74746572792052656163686564546865204c6f7474657279206973206e6f742073746172746564206f7220636c6f736564526573657474696e6720746865204c6f74746572792072657175697265732041646d696e20416363657373a264697066735822122031b6859ebc196517907ad4ad037bd9d3e927db3c02189abc7894e6decdb9ca5364736f6c63430006060033",
  "immutableReferences": {
    "714": [
      {
        "length": 32,
        "start": 4944
      },
      {
        "length": 32,
        "start": 5298
      }
    ],
    "716": [
      {
        "length": 32,
        "start": 2830
      },
      {
        "length": 32,
        "start": 5358
      }
    ]
  },
  "source": "pragma solidity ^0.6.6;\n\nimport \"@openzeppelin/contracts/token/ERC20/IERC20.sol\";\nimport \"@chainlink/contracts/src/v0.6/VRFConsumerBase.sol\";\nimport \"@openzeppelin/contracts/math/SafeMath.sol\";\nimport \"@openzeppelin/contracts/utils/Address.sol\";\n\ncontract LotteryContract is VRFConsumerBase {\n    using SafeMath for uint256;\n    using Address for address;\n\n    struct LotteryConfig {\n        uint256 numOfWinners;\n        uint256 playersLimit;\n        uint256 registrationAmount;\n        uint256 adminFeePercentage;\n        address lotteryTokenAddress;\n        uint256 randomSeed;\n    }\n\n    address[] lotteryPlayers;\n    address adminAddress;\n    enum LotteryStatus {NOTSTARTED, INPROGRESS, CLOSED}\n    mapping(uint256 => address) winnerAddresses;\n    uint256[] winnerIndexes;\n    uint256 totalLotteryPool;\n\n    IERC20 lotteryToken;\n    LotteryStatus public lotteryStatus;\n    LotteryConfig lotteryConfig;\n\n    bytes32 internal keyHash;\n    uint256 internal fee;\n    uint256 internal randomResult;\n    bool internal areWinnersGenerated;\n    bool internal isRandomNumberGenerated;\n\n    event MaxParticipationCompleted(address indexed _from);\n    event RandomNumberGenerated(address indexed _from);\n    event WinnersGenerated();\n    event LotterySettled();\n    event LotteryStarted();\n    event LotteryReset();\n\n    constructor()\n        public\n        VRFConsumerBase(\n            0xdD3782915140c8f3b190B5D67eAc6dc5760C46E9, // VRF Coordinator\n            0xa36085F69e2889c224210F603D836748e7dC0088 // LINK Token\n        )\n    {\n        adminAddress = msg.sender;\n        lotteryStatus = LotteryStatus.NOTSTARTED;\n        totalLotteryPool = 0;\n        keyHash = 0x6c3699283bda56ad74f6b855546325b68d482e983852a7a82979cc4807b641f4;\n        fee = 0.1 * 10**18; // 0.1 LINK\n        areWinnersGenerated = false;\n        isRandomNumberGenerated = false;\n    }\n\n    function getRandomNumber(uint256 userProvidedSeed)\n        internal\n        returns (bytes32 requestId)\n    {\n        require(\n            LINK.balanceOf(address(this)) >= fee,\n            \"Not enough LINK - fill contract with faucet\"\n        );\n        isRandomNumberGenerated = false;\n        return requestRandomness(keyHash, fee, userProvidedSeed);\n    }\n\n    function fulfillRandomness(bytes32 requestId, uint256 randomness)\n        internal\n        override\n    {\n        randomResult = randomness;\n        isRandomNumberGenerated = true;\n        emit RandomNumberGenerated(msg.sender);\n    }\n\n    function setLotteryRules(\n        uint256 numOfWinners,\n        uint256 playersLimit,\n        uint256 registrationAmount,\n        uint256 adminFeePercentage,\n        address lotteryTokenAddress,\n        uint256 randomSeed\n    ) public {\n        require(\n            msg.sender == adminAddress,\n            \"Starting the Lottery requires Admin Access\"\n        );\n        require(\n            lotteryStatus == LotteryStatus.NOTSTARTED,\n            \"Error: An existing lottery is in progress\"\n        );\n        require(\n            numOfWinners <= playersLimit / 2,\n            \"Number of winners should be less than or equal to half the number of players\"\n        );\n        lotteryConfig = LotteryConfig(\n            numOfWinners,\n            playersLimit,\n            registrationAmount,\n            adminFeePercentage,\n            lotteryTokenAddress,\n            randomSeed\n        );\n        lotteryStatus = LotteryStatus.INPROGRESS;\n        lotteryToken = IERC20(lotteryTokenAddress);\n        emit LotteryStarted();\n    }\n\n    function enterLottery() public returns (bool) {\n        require(\n            lotteryPlayers.length < lotteryConfig.playersLimit,\n            \"Max Participation for the Lottery Reached\"\n        );\n        require(\n            lotteryStatus == LotteryStatus.INPROGRESS,\n            \"The Lottery is not started or closed\"\n        );\n        require(\n            lotteryToken.allowance(msg.sender, address(this)) >=\n                lotteryConfig.registrationAmount,\n            \"Contract is not allowed to spend this\"\n        );\n        lotteryPlayers.push(msg.sender);\n        lotteryToken.transferFrom(\n            msg.sender,\n            address(this),\n            lotteryConfig.registrationAmount\n        );\n        totalLotteryPool += lotteryConfig.registrationAmount;\n        if (lotteryPlayers.length == lotteryConfig.playersLimit) {\n            emit MaxParticipationCompleted(msg.sender);\n            getRandomNumber(lotteryConfig.randomSeed);\n        }\n        return true;\n    }\n\n    function settleLottery() public {\n        require(\n            isRandomNumberGenerated,\n            \"Lottery Configuration still in progress. Ploease try in a short while\"\n        );\n        require(\n            lotteryStatus == LotteryStatus.INPROGRESS,\n            \"The Lottery is not started or closed\"\n        );\n        for (uint256 i = 0; i < lotteryConfig.numOfWinners; i++) {\n            uint256 winningIndex = randomResult % lotteryConfig.playersLimit;\n            uint256 counter = 0;\n            while (winnerAddresses[winningIndex] != address(0)) {\n                randomResult = randomResult + getRandomNumberBlockchain(i);\n                winningIndex = randomResult % lotteryConfig.playersLimit;\n                counter++;\n                if (counter == lotteryConfig.playersLimit) {\n                    while (winnerAddresses[winningIndex] != address(0)) {\n                        winningIndex =\n                            (winningIndex + 1) %\n                            lotteryConfig.playersLimit;\n                    }\n                    counter = 0;\n                }\n            }\n            address userAddress = lotteryPlayers[winningIndex];\n            winnerAddresses[winningIndex] = userAddress;\n            winnerIndexes.push(winningIndex);\n            randomResult = randomResult + getRandomNumberBlockchain(i);\n        }\n        areWinnersGenerated = true;\n        emit WinnersGenerated();\n        uint256 adminFees = (totalLotteryPool *\n            lotteryConfig.adminFeePercentage) / 100;\n        uint256 winnersPool = (totalLotteryPool - adminFees) /\n            lotteryConfig.numOfWinners;\n        for (uint256 i = 0; i < lotteryConfig.numOfWinners; i++) {\n            address userAddress = lotteryPlayers[winnerIndexes[i]];\n            lotteryToken.transfer(userAddress, winnersPool);\n        }\n        lotteryToken.transfer(adminAddress, adminFees);\n        lotteryStatus = LotteryStatus.CLOSED;\n        emit LotterySettled();\n    }\n\n    function getRandomNumberBlockchain(uint256 offset)\n        internal\n        view\n        returns (uint256)\n    {\n        bytes32 offsetBlockhash = blockhash(block.number - offset);\n        return uint256(offsetBlockhash);\n    }\n\n    function resetLottery() public {\n        require(\n            msg.sender == adminAddress,\n            \"Resetting the Lottery requires Admin Access\"\n        );\n        require(\n            lotteryStatus == LotteryStatus.CLOSED,\n            \"Lottery Still in Progress\"\n        );\n        delete lotteryConfig;\n        delete randomResult;\n        delete lotteryStatus;\n        delete totalLotteryPool;\n        for (uint256 i = 0; i < lotteryPlayers.length; i++) {\n            delete winnerAddresses[i];\n        }\n        isRandomNumberGenerated = false;\n        areWinnersGenerated = false;\n        delete winnerIndexes;\n        delete lotteryPlayers;\n        emit LotteryReset();\n    }\n}\n",
  "sourcePath": "/home/deqode/ethereum-lottery-smart-contract/contracts/LotteryContract.sol",
  "compiler": {
    "name": "solc",
    "version": "0.6.6+commit.6c089d02.Emscripten.clang"
  },
  "schemaVersion": "3.3.2",
  "updatedAt": "2020-11-19T19:39:25.283Z",
  "devdoc": {
    "methods": {}
  },
  "userdoc": {
    "methods": {}
  }
}