{
  "contractName": "LotteryContract",
  "abi": [
    {
      "inputs": [],
      "stateMutability": "nonpayable",
      "type": "constructor"
    },
    {
      "inputs": [
        {
          "internalType": "uint256",
          "name": "numOfWinners",
          "type": "uint256"
        },
        {
          "internalType": "uint256",
          "name": "playerLimit",
          "type": "uint256"
        },
        {
          "internalType": "uint256",
          "name": "registrationAmount",
          "type": "uint256"
        },
        {
          "internalType": "uint256",
          "name": "adminFeePercentage",
          "type": "uint256"
        },
        {
          "internalType": "address",
          "name": "tokenAddress",
          "type": "address"
        }
      ],
      "name": "setLotteryRules",
      "outputs": [],
      "stateMutability": "nonpayable",
      "type": "function"
    },
    {
      "inputs": [],
      "name": "enterLottery",
      "outputs": [
        {
          "internalType": "bool",
          "name": "",
          "type": "bool"
        }
      ],
      "stateMutability": "nonpayable",
      "type": "function"
    }
  ],
  "bytecode": "0x608060405234801561001057600080fd5b5033600160006101000a81548173ffffffffffffffffffffffffffffffffffffffff021916908373ffffffffffffffffffffffffffffffffffffffff1602179055506000600560146101000a81548160ff0219169083600281111561007157fe5b021790555060006004819055506107bf8061008d6000396000f3fe608060405234801561001057600080fd5b50600436106100365760003560e01c80635a868f621461003b578063c1af5785146100a7575b600080fd5b6100a5600480360360a081101561005157600080fd5b8101908080359060200190929190803590602001909291908035906020019092919080359060200190929190803573ffffffffffffffffffffffffffffffffffffffff1690602001909291905050506100c9565b005b6100af61030a565b604051808215151515815260200191505060405180910390f35b600160009054906101000a900473ffffffffffffffffffffffffffffffffffffffff1673ffffffffffffffffffffffffffffffffffffffff163373ffffffffffffffffffffffffffffffffffffffff161461016f576040517f08c379a000000000000000000000000000000000000000000000000000000000815260040180806020018281038252602a815260200180610737602a913960400191505060405180910390fd5b6000600281111561017c57fe5b600560149054906101000a900460ff16600281111561019757fe5b146101ed576040517f08c379a000000000000000000000000000000000000000000000000000000000815260040180806020018281038252602a815260200180610737602a913960400191505060405180910390fd5b6040518060a001604052808681526020018581526020018481526020018381526020018273ffffffffffffffffffffffffffffffffffffffff1681525060066000820151816000015560208201518160010155604082015181600201556060820151816003015560808201518160040160006101000a81548173ffffffffffffffffffffffffffffffffffffffff021916908373ffffffffffffffffffffffffffffffffffffffff1602179055509050506001600560146101000a81548160ff021916908360028111156102bd57fe5b021790555080600560006101000a81548173ffffffffffffffffffffffffffffffffffffffff021916908373ffffffffffffffffffffffffffffffffffffffff1602179055505050505050565b60006006600101546000805490501061036e576040517f08c379a00000000000000000000000000000000000000000000000000000000081526004018080602001828103825260298152602001806107616029913960400191505060405180910390fd5b6001600281111561037b57fe5b600560149054906101000a900460ff16600281111561039657fe5b14610409576040517f08c379a00000000000000000000000000000000000000000000000000000000081526004018080602001828103825260158152602001807f546865204c6f747465727920697320436c6f736564000000000000000000000081525060200191505060405180910390fd5b600660020154600560009054906101000a900473ffffffffffffffffffffffffffffffffffffffff1673ffffffffffffffffffffffffffffffffffffffff1663dd62ed3e33306040518363ffffffff1660e01b8152600401808373ffffffffffffffffffffffffffffffffffffffff1673ffffffffffffffffffffffffffffffffffffffff1681526020018273ffffffffffffffffffffffffffffffffffffffff1673ffffffffffffffffffffffffffffffffffffffff1681526020019250505060206040518083038186803b1580156104e257600080fd5b505afa1580156104f6573d6000803e3d6000fd5b505050506040513d602081101561050c57600080fd5b81019080805190602001909291905050501015610574576040517f08c379a00000000000000000000000000000000000000000000000000000000081526004018080602001828103825260258152602001806107126025913960400191505060405180910390fd5b6000339080600181540180825580915050600190039060005260206000200160009091909190916101000a81548173ffffffffffffffffffffffffffffffffffffffff021916908373ffffffffffffffffffffffffffffffffffffffff160217905550600560009054906101000a900473ffffffffffffffffffffffffffffffffffffffff1673ffffffffffffffffffffffffffffffffffffffff166323b872dd33306006600201546040518463ffffffff1660e01b8152600401808473ffffffffffffffffffffffffffffffffffffffff1673ffffffffffffffffffffffffffffffffffffffff1681526020018373ffffffffffffffffffffffffffffffffffffffff1673ffffffffffffffffffffffffffffffffffffffff1681526020018281526020019350505050602060405180830381600087803b1580156106b957600080fd5b505af11580156106cd573d6000803e3d6000fd5b505050506040513d60208110156106e357600080fd5b810190808051906020019092919050505050600660020154600460008282540192505081905550600190509056fe436f6e7472616374206973206e6f7420616c6c6f77656420746f207370656e6420746869735374617274696e6720746865204c6f74746572792072657175697265732041646d696e204163636573734d61782050617274696369706174696f6e20666f7220746865204c6f74746572792052656163686564a2646970667358221220e9a0171325db24d4c08dbf76327b55d7061124e6159ab11999fb0d68ce5bdbf364736f6c63430006060033",
  "immutableReferences": {},
  "source": "pragma solidity ^0.6.6;\n\nimport \"@openzeppelin/contracts/token/ERC20/IERC20.sol\";\n\ncontract LotteryContract {\n    \n    struct RulesConfig {\n        uint256 numOfWinners;\n        uint256 playerLimit;\n        uint256 registrationAmount;\n        uint256 adminFeePercentage;\n        address tokenAddress;\n    }\n\n    address[] lotteryPlayers;\n    address adminAddress;\n    enum LotteryStatus {NOTSTARTED, INPROGRESS, CLOSED}\n    mapping(address => bool) winnerAddresses;\n    address[] winners;\n    uint256 totalLotteryPool;\n\n    IERC20 lotteryToken;\n    LotteryStatus lotteryStatus;\n    RulesConfig rulesConfig;\n\n    constructor() public\n    {\n        adminAddress = msg.sender;\n        lotteryStatus = LotteryStatus.NOTSTARTED;\n        totalLotteryPool = 0;\n    }\n\n    function setLotteryRules(\n        uint256 numOfWinners,\n        uint256 playerLimit,\n        uint256 registrationAmount,\n        uint256 adminFeePercentage,\n        address tokenAddress\n    ) public {\n        require(msg.sender == adminAddress, \"Starting the Lottery requires Admin Access\");\n        require(\n            lotteryStatus == LotteryStatus.NOTSTARTED,\n            \"Starting the Lottery requires Admin Access\"\n        );\n        rulesConfig = RulesConfig(\n            numOfWinners,\n            playerLimit,\n            registrationAmount,\n            adminFeePercentage,\n            tokenAddress\n        );\n        lotteryStatus = LotteryStatus.INPROGRESS;\n        lotteryToken = IERC20(tokenAddress);\n    }\n\n    function enterLottery() public returns (bool) {\n        require(\n            lotteryPlayers.length < rulesConfig.playerLimit,\n            \"Max Participation for the Lottery Reached\"\n        );\n        //add condition if address has already entered\n        require(lotteryStatus == LotteryStatus.INPROGRESS, \"The Lottery is Closed\");\n        require(\n            lotteryToken.allowance(msg.sender, address(this)) >=\n                rulesConfig.registrationAmount,\n            \"Contract is not allowed to spend this\"\n        );\n        lotteryPlayers.push(msg.sender);\n        lotteryToken.transferFrom(\n            msg.sender,\n            address(this),\n            rulesConfig.registrationAmount\n        );\n        //if condition here to close lottery after max participation\n        totalLotteryPool += rulesConfig.registrationAmount;\n        return true;\n    }\n\n\n       function settleLottery() internal {\n        require(msg.sender == adminAddress, \"Requires Admin Access\");\n        uint256 adminFees = (totalLotteryPool * rulesConfig.adminFeePercentage)/100;\n        uint256 winnersPool = (totalLotteryPool - adminFees) /  rulesConfig.numOfWinners;\n        //temporary logic till we put the random number logic\n        uint winningIndex = 0;\n        winners.push(lotteryPlayers[winningIndex]);\n        for (uint256 i = 0; i < rulesConfig.numOfWinners; i++) {\n            address winnerAddress = winners[i];\n            lotteryToken.transferFrom(\n                address(this),\n                winnerAddress,\n                winnersPool\n            );\n        }\n        //transfer to Admin\n        lotteryToken.transferFrom(address(this), adminAddress, adminFees);\n        lotteryStatus = LotteryStatus.CLOSED;\n    }\n    \n\n    //add logic to reset contract variblaes values\n    // save historic data of Lottery\n    //error handling\n    //random number integration and making sure that the contract always has LINK tokens\n\n}\n",
  "sourcePath": "/home/deqode/ethereum-lottery-smart-contract/contracts/LotteryContract.sol",
  "compiler": {
    "name": "solc",
    "version": "0.6.6+commit.6c089d02.Emscripten.clang"
  },
  "schemaVersion": "3.3.2",
  "updatedAt": "2020-11-09T20:39:22.798Z",
  "devdoc": {
    "methods": {}
  },
  "userdoc": {
    "methods": {}
  }
}