{
  "contractName": "LotteryContract",
  "abi": [
    {
      "inputs": [],
      "stateMutability": "nonpayable",
      "type": "constructor"
    },
    {
      "anonymous": false,
      "inputs": [],
      "name": "LotteryReset",
      "type": "event"
    },
    {
      "anonymous": false,
      "inputs": [],
      "name": "LotterySettled",
      "type": "event"
    },
    {
      "anonymous": false,
      "inputs": [],
      "name": "LotteryStarted",
      "type": "event"
    },
    {
      "anonymous": false,
      "inputs": [
        {
          "indexed": true,
          "internalType": "address",
          "name": "_from",
          "type": "address"
        }
      ],
      "name": "MaxParticipationCompleted",
      "type": "event"
    },
    {
      "anonymous": false,
      "inputs": [],
      "name": "WinnersGenerated",
      "type": "event"
    },
    {
      "inputs": [],
      "name": "lotteryStatus",
      "outputs": [
        {
          "internalType": "enum LotteryContract.LotteryStatus",
          "name": "",
          "type": "uint8"
        }
      ],
      "stateMutability": "view",
      "type": "function"
    },
    {
      "inputs": [
        {
          "internalType": "bytes32",
          "name": "",
          "type": "bytes32"
        }
      ],
      "name": "nonces",
      "outputs": [
        {
          "internalType": "uint256",
          "name": "",
          "type": "uint256"
        }
      ],
      "stateMutability": "view",
      "type": "function"
    },
    {
      "inputs": [
        {
          "internalType": "bytes32",
          "name": "requestId",
          "type": "bytes32"
        },
        {
          "internalType": "uint256",
          "name": "randomness",
          "type": "uint256"
        }
      ],
      "name": "rawFulfillRandomness",
      "outputs": [],
      "stateMutability": "nonpayable",
      "type": "function"
    },
    {
      "inputs": [
        {
          "internalType": "uint256",
          "name": "numOfWinners",
          "type": "uint256"
        },
        {
          "internalType": "uint256",
          "name": "playersLimit",
          "type": "uint256"
        },
        {
          "internalType": "uint256",
          "name": "registrationAmount",
          "type": "uint256"
        },
        {
          "internalType": "uint256",
          "name": "adminFeePercentage",
          "type": "uint256"
        },
        {
          "internalType": "address",
          "name": "lotteryTokenAddress",
          "type": "address"
        },
        {
          "internalType": "uint256",
          "name": "randomSeed",
          "type": "uint256"
        }
      ],
      "name": "setLotteryRules",
      "outputs": [],
      "stateMutability": "nonpayable",
      "type": "function"
    },
    {
      "inputs": [],
      "name": "enterLottery",
      "outputs": [
        {
          "internalType": "bool",
          "name": "",
          "type": "bool"
        }
      ],
      "stateMutability": "nonpayable",
      "type": "function"
    },
    {
      "inputs": [],
      "name": "resetLottery",
      "outputs": [],
      "stateMutability": "nonpayable",
      "type": "function"
    }
  ],
  "bytecode": "0x60c060405234801561001057600080fd5b5073dd3782915140c8f3b190b5d67eac6dc5760c46e973a36085f69e2889c224210f603d836748e7dc00888173ffffffffffffffffffffffffffffffffffffffff1660a08173ffffffffffffffffffffffffffffffffffffffff1660601b815250508073ffffffffffffffffffffffffffffffffffffffff1660808173ffffffffffffffffffffffffffffffffffffffff1660601b81525050505033600260006101000a81548173ffffffffffffffffffffffffffffffffffffffff021916908373ffffffffffffffffffffffffffffffffffffffff1602179055506000600660146101000a81548160ff0219169083600281111561010b57fe5b021790555060006005819055507f6c3699283bda56ad74f6b855546325b68d482e983852a7a82979cc4807b641f460001b600d8190555067016345785d8a0000600e819055506000601060006101000a81548160ff02191690831515021790555060805160601c60a05160601c6118ad61019f6000398061044252806113aa525080610e23528061136e52506118ad6000f3fe608060405234801561001057600080fd5b50600436106100625760003560e01c80630d683dd9146100675780636812d8741461009357806394985ddd146101095780639e317f1214610141578063c1af578514610183578063d337616e146101a5575b600080fd5b61006f6101af565b6040518082600281111561007f57fe5b60ff16815260200191505060405180910390f35b610107600480360360c08110156100a957600080fd5b8101908080359060200190929190803590602001909291908035906020019092919080359060200190929190803573ffffffffffffffffffffffffffffffffffffffff169060200190929190803590602001909291905050506101c2565b005b61013f6004803603604081101561011f57600080fd5b810190808035906020019092919080359060200190929190505050610440565b005b61016d6004803603602081101561015757600080fd5b810190808035906020019092919050505061050f565b6040518082815260200191505060405180910390f35b61018b610527565b604051808215151515815260200191505060405180910390f35b6101ad610976565b005b600660149054906101000a900460ff1681565b600260009054906101000a900473ffffffffffffffffffffffffffffffffffffffff1673ffffffffffffffffffffffffffffffffffffffff163373ffffffffffffffffffffffffffffffffffffffff1614610268576040517f08c379a000000000000000000000000000000000000000000000000000000000815260040180806020018281038252602a8152602001806117d6602a913960400191505060405180910390fd5b6000600281111561027557fe5b600660149054906101000a900460ff16600281111561029057fe5b146102e6576040517f08c379a000000000000000000000000000000000000000000000000000000000815260040180806020018281038252602981526020018061175d6029913960400191505060405180910390fd5b6040518060c001604052808781526020018681526020018581526020018481526020018373ffffffffffffffffffffffffffffffffffffffff1681526020018281525060076000820151816000015560208201518160010155604082015181600201556060820151816003015560808201518160040160006101000a81548173ffffffffffffffffffffffffffffffffffffffff021916908373ffffffffffffffffffffffffffffffffffffffff16021790555060a082015181600501559050506001600660146101000a81548160ff021916908360028111156103c657fe5b021790555081600660006101000a81548173ffffffffffffffffffffffffffffffffffffffff021916908373ffffffffffffffffffffffffffffffffffffffff1602179055507fd029c7c68d943f92286a7825fa6aa2deefa1eee46cee6c91b7e483fd06d27baf60405160405180910390a1505050505050565b7f000000000000000000000000000000000000000000000000000000000000000073ffffffffffffffffffffffffffffffffffffffff163373ffffffffffffffffffffffffffffffffffffffff1614610501576040517f08c379a000000000000000000000000000000000000000000000000000000000815260040180806020018281038252601f8152602001807f4f6e6c7920565246436f6f7264696e61746f722063616e2066756c66696c6c0081525060200191505060405180910390fd5b61050b8282610c3d565b5050565b60006020528060005260406000206000915090505481565b60006007600101546001805490501061058b576040517f08c379a00000000000000000000000000000000000000000000000000000000081526004018080602001828103825260298152602001806118006029913960400191505060405180910390fd5b6001600281111561059857fe5b600660149054906101000a900460ff1660028111156105b357fe5b14610609576040517f08c379a00000000000000000000000000000000000000000000000000000000081526004018080602001828103825260248152602001806118296024913960400191505060405180910390fd5b600760020154600660009054906101000a900473ffffffffffffffffffffffffffffffffffffffff1673ffffffffffffffffffffffffffffffffffffffff1663dd62ed3e33306040518363ffffffff1660e01b8152600401808373ffffffffffffffffffffffffffffffffffffffff1673ffffffffffffffffffffffffffffffffffffffff1681526020018273ffffffffffffffffffffffffffffffffffffffff1673ffffffffffffffffffffffffffffffffffffffff1681526020019250505060206040518083038186803b1580156106e257600080fd5b505afa1580156106f6573d6000803e3d6000fd5b505050506040513d602081101561070c57600080fd5b81019080805190602001909291905050501015610774576040517f08c379a00000000000000000000000000000000000000000000000000000000081526004018080602001828103825260258152602001806117b16025913960400191505060405180910390fd5b6001339080600181540180825580915050600190039060005260206000200160009091909190916101000a81548173ffffffffffffffffffffffffffffffffffffffff021916908373ffffffffffffffffffffffffffffffffffffffff160217905550600660009054906101000a900473ffffffffffffffffffffffffffffffffffffffff1673ffffffffffffffffffffffffffffffffffffffff166323b872dd33306007600201546040518463ffffffff1660e01b8152600401808473ffffffffffffffffffffffffffffffffffffffff1673ffffffffffffffffffffffffffffffffffffffff1681526020018373ffffffffffffffffffffffffffffffffffffffff1673ffffffffffffffffffffffffffffffffffffffff1681526020018281526020019350505050602060405180830381600087803b1580156108b957600080fd5b505af11580156108cd573d6000803e3d6000fd5b505050506040513d60208110156108e357600080fd5b810190808051906020019092919050505050600760020154600560008282540192505081905550600760010154600180549050141561096f573373ffffffffffffffffffffffffffffffffffffffff167f176a0af3bf0cb5427d014b58c70781c718cc8890129cc6ef23e9289fd12b62f560405160405180910390a261096d600760050154610e1c565b505b6001905090565b600260009054906101000a900473ffffffffffffffffffffffffffffffffffffffff1673ffffffffffffffffffffffffffffffffffffffff163373ffffffffffffffffffffffffffffffffffffffff1614610a1c576040517f08c379a000000000000000000000000000000000000000000000000000000000815260040180806020018281038252602b81526020018061184d602b913960400191505060405180910390fd5b600280811115610a2857fe5b600660149054906101000a900460ff166002811115610a4357fe5b14610ab6576040517f08c379a00000000000000000000000000000000000000000000000000000000081526004018080602001828103825260198152602001807f4c6f7474657279205374696c6c20696e2050726f67726573730000000000000081525060200191505060405180910390fd5b60076000808201600090556001820160009055600282016000905560038201600090556004820160006101000a81549073ffffffffffffffffffffffffffffffffffffffff021916905560058201600090555050600f60009055600660146101000a81549060ff021916905560056000905560008090505b600180549050811015610bd75760006003600060018481548110610b4e57fe5b9060005260206000200160009054906101000a900473ffffffffffffffffffffffffffffffffffffffff1673ffffffffffffffffffffffffffffffffffffffff1673ffffffffffffffffffffffffffffffffffffffff16815260200190815260200160002060006101000a81548160ff0219169083151502179055508080600101915050610b2e565b506000601060006101000a81548160ff02191690831515021790555060046000610c0191906116b0565b60016000610c0f91906116d1565b7fc07cdc0437f4a5523d938e3a96f2e751ce4a8e8784c5ce2316c7f833ac26772060405160405180910390a1565b80600f8190555060008090505b600760000154811015610e17576000600760010154600f5481610c6957fe5b069050600060018281548110610c7b57fe5b9060005260206000200160009054906101000a900473ffffffffffffffffffffffffffffffffffffffff169050600360008273ffffffffffffffffffffffffffffffffffffffff1673ffffffffffffffffffffffffffffffffffffffff16815260200190815260200160002060009054906101000a900460ff1615610d1057610d08600760050154610e1c565b505050610e17565b6001600360008373ffffffffffffffffffffffffffffffffffffffff1673ffffffffffffffffffffffffffffffffffffffff16815260200190815260200160002060006101000a81548160ff02191690831515021790555060048290806001815401808255809150506001900390600052602060002001600090919091909150556007600001546004805490501415610df9576001601060006101000a81548160ff0219169083151502179055507f1f689cf1fc80ab3580590a7a9035baf9d303e9349c60f58aff89eede927e3b5760405160405180910390a1610df2610f66565b5050610e17565b610e028461132d565b600f8190555050508080600101915050610c4a565b505050565b6000600e547f000000000000000000000000000000000000000000000000000000000000000073ffffffffffffffffffffffffffffffffffffffff166370a08231306040518263ffffffff1660e01b8152600401808273ffffffffffffffffffffffffffffffffffffffff1673ffffffffffffffffffffffffffffffffffffffff16815260200191505060206040518083038186803b158015610ebe57600080fd5b505afa158015610ed2573d6000803e3d6000fd5b505050506040513d6020811015610ee857600080fd5b81019080805190602001909291905050501015610f50576040517f08c379a000000000000000000000000000000000000000000000000000000000815260040180806020018281038252602b815260200180611786602b913960400191505060405180910390fd5b610f5f600d54600e548461136a565b9050919050565b601060009054906101000a900460ff16610fcb576040517f08c379a00000000000000000000000000000000000000000000000000000000081526004018080602001828103825260458152602001806117186045913960600191505060405180910390fd5b60016002811115610fd857fe5b600660149054906101000a900460ff166002811115610ff357fe5b14611049576040517f08c379a00000000000000000000000000000000000000000000000000000000081526004018080602001828103825260248152602001806118296024913960400191505060405180910390fd5b60006064600760030154600554028161105e57fe5b049050600060076000015482600554038161107557fe5b04905060008090505b6007600001548110156111d157600060016004838154811061109c57fe5b9060005260206000200154815481106110b157fe5b9060005260206000200160009054906101000a900473ffffffffffffffffffffffffffffffffffffffff169050600660009054906101000a900473ffffffffffffffffffffffffffffffffffffffff1673ffffffffffffffffffffffffffffffffffffffff1663a9059cbb82856040518363ffffffff1660e01b8152600401808373ffffffffffffffffffffffffffffffffffffffff1673ffffffffffffffffffffffffffffffffffffffff16815260200182815260200192505050602060405180830381600087803b15801561118757600080fd5b505af115801561119b573d6000803e3d6000fd5b505050506040513d60208110156111b157600080fd5b81019080805190602001909291905050505050808060010191505061107e565b50600660009054906101000a900473ffffffffffffffffffffffffffffffffffffffff1673ffffffffffffffffffffffffffffffffffffffff1663a9059cbb600260009054906101000a900473ffffffffffffffffffffffffffffffffffffffff16846040518363ffffffff1660e01b8152600401808373ffffffffffffffffffffffffffffffffffffffff1673ffffffffffffffffffffffffffffffffffffffff16815260200182815260200192505050602060405180830381600087803b15801561129d57600080fd5b505af11580156112b1573d6000803e3d6000fd5b505050506040513d60208110156112c757600080fd5b8101908080519060200190929190505050506002600660146101000a81548160ff021916908360028111156112f857fe5b02179055507f7c286e244a0e448247c44bb115bdd1c139318d5444a8af1d00e81116c09c0bd760405160405180910390a15050565b600081424460405160200180838152602001828152602001925050506040516020818303038152906040528051906020012060001c029050919050565b60007f000000000000000000000000000000000000000000000000000000000000000073ffffffffffffffffffffffffffffffffffffffff16634000aea07f000000000000000000000000000000000000000000000000000000000000000085878660405160200180838152602001828152602001925050506040516020818303038152906040526040518463ffffffff1660e01b8152600401808473ffffffffffffffffffffffffffffffffffffffff1673ffffffffffffffffffffffffffffffffffffffff16815260200183815260200180602001828103825283818151815260200191508051906020019080838360005b8381101561147957808201518184015260208101905061145e565b50505050905090810190601f1680156114a65780820380516001836020036101000a031916815260200191505b50945050505050602060405180830381600087803b1580156114c757600080fd5b505af11580156114db573d6000803e3d6000fd5b505050506040513d60208110156114f157600080fd5b81019080805190602001909291905050505060006115238584306000808a815260200190815260200160002054611575565b905061154b6001600080888152602001908152602001600020546115ef90919063ffffffff16565b6000808781526020019081526020016000208190555061156b8582611677565b9150509392505050565b600084848484604051602001808581526020018481526020018373ffffffffffffffffffffffffffffffffffffffff1673ffffffffffffffffffffffffffffffffffffffff1681526020018281526020019450505050506040516020818303038152906040528051906020012060001c9050949350505050565b60008082840190508381101561166d576040517f08c379a000000000000000000000000000000000000000000000000000000000815260040180806020018281038252601b8152602001807f536166654d6174683a206164646974696f6e206f766572666c6f77000000000081525060200191505060405180910390fd5b8091505092915050565b60008282604051602001808381526020018281526020019250505060405160208183030381529060405280519060200120905092915050565b50805460008255906000526020600020908101906116ce91906116f2565b50565b50805460008255906000526020600020908101906116ef91906116f2565b50565b61171491905b808211156117105760008160009055506001016116f8565b5090565b9056fe4c6f747465727920436f6e66696775726174696f6e207374696c6c20696e2070726f67726573732e20506c6f656173652074727920696e20612073686f7274207768696c654572726f723a20416e206578697374696e67206c6f747465727920697320696e2070726f67726573734e6f7420656e6f756768204c494e4b202d2066696c6c20636f6e7472616374207769746820666175636574436f6e7472616374206973206e6f7420616c6c6f77656420746f207370656e6420746869735374617274696e6720746865204c6f74746572792072657175697265732041646d696e204163636573734d61782050617274696369706174696f6e20666f7220746865204c6f74746572792052656163686564546865204c6f7474657279206973206e6f742073746172746564206f7220636c6f736564526573657474696e6720746865204c6f74746572792072657175697265732041646d696e20416363657373a2646970667358221220440e8237ea698365399c9e0e10eeb76384797372b6a1401dd833d34420e3e2e364736f6c63430006060033",
  "immutableReferences": {
    "634": [
      {
        "length": 32,
        "start": 3619
      },
      {
        "length": 32,
        "start": 4974
      }
    ],
    "636": [
      {
        "length": 32,
        "start": 1090
      },
      {
        "length": 32,
        "start": 5034
      }
    ]
  },
  "source": "pragma solidity ^0.6.6;\n\nimport \"@openzeppelin/contracts/token/ERC20/IERC20.sol\";\nimport \"@chainlink/contracts/src/v0.6/VRFConsumerBase.sol\";\n\ncontract LotteryContract is VRFConsumerBase {\n    struct LotteryConfig {\n        uint256 numOfWinners;\n        uint256 playersLimit;\n        uint256 registrationAmount;\n        uint256 adminFeePercentage;\n        address lotteryTokenAddress;\n        uint256 randomSeed;\n    }\n\n    address[] lotteryPlayers;\n    address adminAddress;\n    enum LotteryStatus {NOTSTARTED, INPROGRESS, CLOSED}\n    mapping(address => bool) winnerAddresses;\n    uint256[] winnerIndexes;\n    uint256 totalLotteryPool;\n\n    IERC20 lotteryToken;\n    LotteryStatus public lotteryStatus;\n    LotteryConfig lotteryConfig;\n\n    bytes32 internal keyHash;\n    uint256 internal fee;\n    uint256 internal randomResult;\n    bool internal areWinnersGenerated;\n\n    event MaxParticipationCompleted(address indexed _from);\n    event WinnersGenerated();\n    event LotterySettled();\n    event LotteryStarted();\n    event LotteryReset();\n\n    constructor()\n        public\n        VRFConsumerBase(\n            0xdD3782915140c8f3b190B5D67eAc6dc5760C46E9, // VRF Coordinator\n            0xa36085F69e2889c224210F603D836748e7dC0088 // LINK Token\n        )\n    {\n        adminAddress = msg.sender;\n        lotteryStatus = LotteryStatus.NOTSTARTED;\n        totalLotteryPool = 0;\n        keyHash = 0x6c3699283bda56ad74f6b855546325b68d482e983852a7a82979cc4807b641f4;\n        fee = 0.1 * 10**18; // 0.1 LINK\n        areWinnersGenerated = false;\n    }\n\n    function getRandomNumber(uint256 userProvidedSeed)\n        internal\n        returns (bytes32 requestId)\n    {\n        require(\n            LINK.balanceOf(address(this)) >= fee,\n            \"Not enough LINK - fill contract with faucet\"\n        );\n        return requestRandomness(keyHash, fee, userProvidedSeed);\n    }\n\n    function fulfillRandomness(bytes32 requestId, uint256 randomness)\n        internal\n        override\n    {\n        randomResult = randomness;\n        for (uint256 i = 0; i < lotteryConfig.numOfWinners; i++) {\n            uint256 winningIndex = randomResult % lotteryConfig.playersLimit;\n            address userAddress = lotteryPlayers[winningIndex];\n            if (winnerAddresses[userAddress]) {\n                getRandomNumber(lotteryConfig.randomSeed);\n                break;\n            } else {\n                winnerAddresses[userAddress] = true;\n                winnerIndexes.push(winningIndex);\n                if (winnerIndexes.length == lotteryConfig.numOfWinners) {\n                    areWinnersGenerated = true;\n                    emit WinnersGenerated();\n                    settleLottery();\n                    break;\n                } else {\n                    randomResult = getRandomNumberBlockchain(randomness);\n                }\n            }\n        }\n    }\n\n    function setLotteryRules(\n        uint256 numOfWinners,\n        uint256 playersLimit,\n        uint256 registrationAmount,\n        uint256 adminFeePercentage,\n        address lotteryTokenAddress,\n        uint256 randomSeed\n    ) public {\n        require(\n            msg.sender == adminAddress,\n            \"Starting the Lottery requires Admin Access\"\n        );\n        require(\n            lotteryStatus == LotteryStatus.NOTSTARTED,\n            \"Error: An existing lottery is in progress\"\n        );\n        lotteryConfig = LotteryConfig(\n            numOfWinners,\n            playersLimit,\n            registrationAmount,\n            adminFeePercentage,\n            lotteryTokenAddress,\n            randomSeed\n        );\n        lotteryStatus = LotteryStatus.INPROGRESS;\n        lotteryToken = IERC20(lotteryTokenAddress);\n        emit LotteryStarted();\n    }\n\n    function enterLottery() public returns (bool) {\n        require(\n            lotteryPlayers.length < lotteryConfig.playersLimit,\n            \"Max Participation for the Lottery Reached\"\n        );\n        require(\n            lotteryStatus == LotteryStatus.INPROGRESS,\n            \"The Lottery is not started or closed\"\n        );\n        require(\n            lotteryToken.allowance(msg.sender, address(this)) >=\n                lotteryConfig.registrationAmount,\n            \"Contract is not allowed to spend this\"\n        );\n        lotteryPlayers.push(msg.sender);\n        lotteryToken.transferFrom(\n            msg.sender,\n            address(this),\n            lotteryConfig.registrationAmount\n        );\n        totalLotteryPool += lotteryConfig.registrationAmount;\n        if (lotteryPlayers.length == lotteryConfig.playersLimit) {\n            emit MaxParticipationCompleted(msg.sender);\n            getRandomNumber(lotteryConfig.randomSeed);\n        }\n        return true;\n    }\n\n    function settleLottery() internal {\n        require(\n            areWinnersGenerated,\n            \"Lottery Configuration still in progress. Ploease try in a short while\"\n        );\n        require(\n            lotteryStatus == LotteryStatus.INPROGRESS,\n            \"The Lottery is not started or closed\"\n        );\n        uint256 adminFees = (totalLotteryPool *\n            lotteryConfig.adminFeePercentage) / 100;\n        uint256 winnersPool = (totalLotteryPool - adminFees) /\n            lotteryConfig.numOfWinners;\n        for (uint256 i = 0; i < lotteryConfig.numOfWinners; i++) {\n            address userAddress = lotteryPlayers[winnerIndexes[i]];\n            lotteryToken.transfer(userAddress, winnersPool);\n        }\n        lotteryToken.transfer(adminAddress, adminFees);\n        lotteryStatus = LotteryStatus.CLOSED;\n        emit LotterySettled();\n    }\n\n    function getRandomNumberBlockchain(uint256 randomness)\n        internal\n        view\n        returns (uint256)\n    {\n        return\n            uint256(\n                keccak256(abi.encodePacked(block.timestamp, block.difficulty))\n            ) * randomness;\n    }\n\n    function resetLottery() public {\n        require(\n            msg.sender == adminAddress,\n            \"Resetting the Lottery requires Admin Access\"\n        );\n        require(\n            lotteryStatus == LotteryStatus.CLOSED,\n            \"Lottery Still in Progress\"\n        );\n        delete lotteryConfig;\n        delete randomResult;\n        delete lotteryStatus;\n        delete totalLotteryPool;\n        for (uint256 i = 0; i < lotteryPlayers.length; i++) {\n            winnerAddresses[lotteryPlayers[i]] = false;\n        }\n        areWinnersGenerated = false;\n        delete winnerIndexes;\n        delete lotteryPlayers;\n        emit LotteryReset();\n    }\n}\n",
  "sourcePath": "/Users/ayardi/Work/ethereum-lottery-smart-contract/contracts/LotteryContract.sol",
  "compiler": {
    "name": "solc",
    "version": "0.6.6+commit.6c089d02.Emscripten.clang"
  },
  "schemaVersion": "3.3.2",
  "updatedAt": "2020-11-17T11:55:57.251Z",
  "devdoc": {
    "methods": {}
  },
  "userdoc": {
    "methods": {}
  }
}